{
  "contractName": "ERC4907",
  "abi": [
    {
      "inputs": [
        {
          "internalType": "string",
          "name": "name_",
          "type": "string"
        },
        {
          "internalType": "string",
          "name": "symbol_",
          "type": "string"
        }
      ],
      "stateMutability": "nonpayable",
      "type": "constructor"
    },
    {
      "anonymous": false,
      "inputs": [
        {
          "indexed": true,
          "internalType": "address",
          "name": "owner",
          "type": "address"
        },
        {
          "indexed": true,
          "internalType": "address",
          "name": "approved",
          "type": "address"
        },
        {
          "indexed": true,
          "internalType": "uint256",
          "name": "tokenId",
          "type": "uint256"
        }
      ],
      "name": "Approval",
      "type": "event"
    },
    {
      "anonymous": false,
      "inputs": [
        {
          "indexed": true,
          "internalType": "address",
          "name": "owner",
          "type": "address"
        },
        {
          "indexed": true,
          "internalType": "address",
          "name": "operator",
          "type": "address"
        },
        {
          "indexed": false,
          "internalType": "bool",
          "name": "approved",
          "type": "bool"
        }
      ],
      "name": "ApprovalForAll",
      "type": "event"
    },
    {
      "anonymous": false,
      "inputs": [
        {
          "indexed": true,
          "internalType": "address",
          "name": "from",
          "type": "address"
        },
        {
          "indexed": true,
          "internalType": "address",
          "name": "to",
          "type": "address"
        },
        {
          "indexed": true,
          "internalType": "uint256",
          "name": "tokenId",
          "type": "uint256"
        }
      ],
      "name": "Transfer",
      "type": "event"
    },
    {
      "anonymous": false,
      "inputs": [
        {
          "indexed": true,
          "internalType": "uint256",
          "name": "tokenId",
          "type": "uint256"
        },
        {
          "indexed": true,
          "internalType": "address",
          "name": "user",
          "type": "address"
        },
        {
          "indexed": false,
          "internalType": "uint64",
          "name": "expires",
          "type": "uint64"
        }
      ],
      "name": "UpdateUser",
      "type": "event"
    },
    {
      "inputs": [
        {
          "internalType": "address",
          "name": "to",
          "type": "address"
        },
        {
          "internalType": "uint256",
          "name": "tokenId",
          "type": "uint256"
        }
      ],
      "name": "approve",
      "outputs": [],
      "stateMutability": "nonpayable",
      "type": "function"
    },
    {
      "inputs": [
        {
          "internalType": "address",
          "name": "owner",
          "type": "address"
        }
      ],
      "name": "balanceOf",
      "outputs": [
        {
          "internalType": "uint256",
          "name": "",
          "type": "uint256"
        }
      ],
      "stateMutability": "view",
      "type": "function"
    },
    {
      "inputs": [
        {
          "internalType": "uint256",
          "name": "tokenId",
          "type": "uint256"
        }
      ],
      "name": "getApproved",
      "outputs": [
        {
          "internalType": "address",
          "name": "",
          "type": "address"
        }
      ],
      "stateMutability": "view",
      "type": "function"
    },
    {
      "inputs": [
        {
          "internalType": "address",
          "name": "owner",
          "type": "address"
        },
        {
          "internalType": "address",
          "name": "operator",
          "type": "address"
        }
      ],
      "name": "isApprovedForAll",
      "outputs": [
        {
          "internalType": "bool",
          "name": "",
          "type": "bool"
        }
      ],
      "stateMutability": "view",
      "type": "function"
    },
    {
      "inputs": [],
      "name": "name",
      "outputs": [
        {
          "internalType": "string",
          "name": "",
          "type": "string"
        }
      ],
      "stateMutability": "view",
      "type": "function"
    },
    {
      "inputs": [
        {
          "internalType": "uint256",
          "name": "tokenId",
          "type": "uint256"
        }
      ],
      "name": "ownerOf",
      "outputs": [
        {
          "internalType": "address",
          "name": "",
          "type": "address"
        }
      ],
      "stateMutability": "view",
      "type": "function"
    },
    {
      "inputs": [
        {
          "internalType": "address",
          "name": "from",
          "type": "address"
        },
        {
          "internalType": "address",
          "name": "to",
          "type": "address"
        },
        {
          "internalType": "uint256",
          "name": "tokenId",
          "type": "uint256"
        }
      ],
      "name": "safeTransferFrom",
      "outputs": [],
      "stateMutability": "nonpayable",
      "type": "function"
    },
    {
      "inputs": [
        {
          "internalType": "address",
          "name": "from",
          "type": "address"
        },
        {
          "internalType": "address",
          "name": "to",
          "type": "address"
        },
        {
          "internalType": "uint256",
          "name": "tokenId",
          "type": "uint256"
        },
        {
          "internalType": "bytes",
          "name": "_data",
          "type": "bytes"
        }
      ],
      "name": "safeTransferFrom",
      "outputs": [],
      "stateMutability": "nonpayable",
      "type": "function"
    },
    {
      "inputs": [
        {
          "internalType": "address",
          "name": "operator",
          "type": "address"
        },
        {
          "internalType": "bool",
          "name": "approved",
          "type": "bool"
        }
      ],
      "name": "setApprovalForAll",
      "outputs": [],
      "stateMutability": "nonpayable",
      "type": "function"
    },
    {
      "inputs": [],
      "name": "symbol",
      "outputs": [
        {
          "internalType": "string",
          "name": "",
          "type": "string"
        }
      ],
      "stateMutability": "view",
      "type": "function"
    },
    {
      "inputs": [
        {
          "internalType": "uint256",
          "name": "tokenId",
          "type": "uint256"
        }
      ],
      "name": "tokenURI",
      "outputs": [
        {
          "internalType": "string",
          "name": "",
          "type": "string"
        }
      ],
      "stateMutability": "view",
      "type": "function"
    },
    {
      "inputs": [
        {
          "internalType": "address",
          "name": "from",
          "type": "address"
        },
        {
          "internalType": "address",
          "name": "to",
          "type": "address"
        },
        {
          "internalType": "uint256",
          "name": "tokenId",
          "type": "uint256"
        }
      ],
      "name": "transferFrom",
      "outputs": [],
      "stateMutability": "nonpayable",
      "type": "function"
    },
    {
      "inputs": [
        {
          "internalType": "uint256",
          "name": "tokenId",
          "type": "uint256"
        },
        {
          "internalType": "address",
          "name": "user",
          "type": "address"
        },
        {
          "internalType": "uint64",
          "name": "expires",
          "type": "uint64"
        }
      ],
      "name": "setUser",
      "outputs": [],
      "stateMutability": "nonpayable",
      "type": "function"
    },
    {
      "inputs": [
        {
          "internalType": "uint256",
          "name": "tokenId",
          "type": "uint256"
        }
      ],
      "name": "userOf",
      "outputs": [
        {
          "internalType": "address",
          "name": "",
          "type": "address"
        }
      ],
      "stateMutability": "view",
      "type": "function"
    },
    {
      "inputs": [
        {
          "internalType": "uint256",
          "name": "tokenId",
          "type": "uint256"
        }
      ],
      "name": "userExpires",
      "outputs": [
        {
          "internalType": "uint256",
          "name": "",
          "type": "uint256"
        }
      ],
      "stateMutability": "view",
      "type": "function"
    },
    {
      "inputs": [
        {
          "internalType": "bytes4",
          "name": "interfaceId",
          "type": "bytes4"
        }
      ],
      "name": "supportsInterface",
      "outputs": [
        {
          "internalType": "bool",
          "name": "",
          "type": "bool"
        }
      ],
      "stateMutability": "view",
      "type": "function"
    }
  ],
  "bytecode": "0x60806040523480156200001157600080fd5b5060405162002ce438038062002ce48339818101604052810190620000379190620002c2565b818181600090805190602001906200005192919062000075565b5080600190805190602001906200006a92919062000075565b5050505050620003ab565b828054620000839062000376565b90600052602060002090601f016020900481019282620000a75760008555620000f3565b82601f10620000c257805160ff1916838001178555620000f3565b82800160010185558215620000f3579182015b82811115620000f2578251825591602001919060010190620000d5565b5b50905062000102919062000106565b5090565b5b808211156200012157600081600090555060010162000107565b5090565b6000604051905090565b600080fd5b600080fd5b600080fd5b600080fd5b6000601f19601f8301169050919050565b7f4e487b7100000000000000000000000000000000000000000000000000000000600052604160045260246000fd5b6200018e8262000143565b810181811067ffffffffffffffff82111715620001b057620001af62000154565b5b80604052505050565b6000620001c562000125565b9050620001d3828262000183565b919050565b600067ffffffffffffffff821115620001f657620001f562000154565b5b620002018262000143565b9050602081019050919050565b60005b838110156200022e57808201518184015260208101905062000211565b838111156200023e576000848401525b50505050565b60006200025b6200025584620001d8565b620001b9565b9050828152602081018484840111156200027a57620002796200013e565b5b620002878482856200020e565b509392505050565b600082601f830112620002a757620002a662000139565b5b8151620002b984826020860162000244565b91505092915050565b60008060408385031215620002dc57620002db6200012f565b5b600083015167ffffffffffffffff811115620002fd57620002fc62000134565b5b6200030b858286016200028f565b925050602083015167ffffffffffffffff8111156200032f576200032e62000134565b5b6200033d858286016200028f565b9150509250929050565b7f4e487b7100000000000000000000000000000000000000000000000000000000600052602260045260246000fd5b600060028204905060018216806200038f57607f821691505b602082108103620003a557620003a462000347565b5b50919050565b61292980620003bb6000396000f3fe608060405234801561001057600080fd5b50600436106101005760003560e01c80638fc88c4811610097578063c2f1f14a11610066578063c2f1f14a146102bd578063c87b56dd146102ed578063e030565e1461031d578063e985e9c51461033957610100565b80638fc88c481461023757806395d89b4114610267578063a22cb46514610285578063b88d4fde146102a157610100565b806323b872dd116100d357806323b872dd1461019f57806342842e0e146101bb5780636352211e146101d757806370a082311461020757610100565b806301ffc9a71461010557806306fdde0314610135578063081812fc14610153578063095ea7b314610183575b600080fd5b61011f600480360381019061011a9190611869565b610369565b60405161012c91906118b1565b60405180910390f35b61013d6103e3565b60405161014a9190611965565b60405180910390f35b61016d600480360381019061016891906119bd565b610475565b60405161017a9190611a2b565b60405180910390f35b61019d60048036038101906101989190611a72565b6104fa565b005b6101b960048036038101906101b49190611ab2565b610611565b005b6101d560048036038101906101d09190611ab2565b610671565b005b6101f160048036038101906101ec91906119bd565b610691565b6040516101fe9190611a2b565b60405180910390f35b610221600480360381019061021c9190611b05565b610742565b60405161022e9190611b41565b60405180910390f35b610251600480360381019061024c91906119bd565b6107f9565b60405161025e9190611b41565b60405180910390f35b61026f610837565b60405161027c9190611965565b60405180910390f35b61029f600480360381019061029a9190611b88565b6108c9565b005b6102bb60048036038101906102b69190611cfd565b6108df565b005b6102d760048036038101906102d291906119bd565b610941565b6040516102e49190611a2b565b60405180910390f35b610307600480360381019061030291906119bd565b6109c6565b6040516103149190611965565b60405180910390f35b61033760048036038101906103329190611dc0565b610a6d565b005b610353600480360381019061034e9190611e13565b610b90565b60405161036091906118b1565b60405180910390f35b60007fad092b5c000000000000000000000000000000000000000000000000000000007bffffffffffffffffffffffffffffffffffffffffffffffffffffffff1916827bffffffffffffffffffffffffffffffffffffffffffffffffffffffff191614806103dc57506103db82610c24565b5b9050919050565b6060600080546103f290611e82565b80601f016020809104026020016040519081016040528092919081815260200182805461041e90611e82565b801561046b5780601f106104405761010080835404028352916020019161046b565b820191906000526020600020905b81548152906001019060200180831161044e57829003601f168201915b5050505050905090565b600061048082610d06565b6104bf576040517f08c379a00000000000000000000000000000000000000000000000000000000081526004016104b690611f25565b60405180910390fd5b6004600083815260200190815260200160002060009054906101000a900473ffffffffffffffffffffffffffffffffffffffff169050919050565b600061050582610691565b90508073ffffffffffffffffffffffffffffffffffffffff168373ffffffffffffffffffffffffffffffffffffffff1603610575576040517f08c379a000000000000000000000000000000000000000000000000000000000815260040161056c90611fb7565b60405180910390fd5b8073ffffffffffffffffffffffffffffffffffffffff16610594610d72565b73ffffffffffffffffffffffffffffffffffffffff1614806105c357506105c2816105bd610d72565b610b90565b5b610602576040517f08c379a00000000000000000000000000000000000000000000000000000000081526004016105f990612049565b60405180910390fd5b61060c8383610d7a565b505050565b61062261061c610d72565b82610e33565b610661576040517f08c379a0000000000000000000000000000000000000000000000000000000008152600401610658906120db565b60405180910390fd5b61066c838383610f11565b505050565b61068c838383604051806020016040528060008152506108df565b505050565b6000806002600084815260200190815260200160002060009054906101000a900473ffffffffffffffffffffffffffffffffffffffff169050600073ffffffffffffffffffffffffffffffffffffffff168173ffffffffffffffffffffffffffffffffffffffff1603610739576040517f08c379a00000000000000000000000000000000000000000000000000000000081526004016107309061216d565b60405180910390fd5b80915050919050565b60008073ffffffffffffffffffffffffffffffffffffffff168273ffffffffffffffffffffffffffffffffffffffff16036107b2576040517f08c379a00000000000000000000000000000000000000000000000000000000081526004016107a9906121ff565b60405180910390fd5b600360008373ffffffffffffffffffffffffffffffffffffffff1673ffffffffffffffffffffffffffffffffffffffff168152602001908152602001600020549050919050565b60006006600083815260200190815260200160002060000160149054906101000a900467ffffffffffffffff1667ffffffffffffffff169050919050565b60606001805461084690611e82565b80601f016020809104026020016040519081016040528092919081815260200182805461087290611e82565b80156108bf5780601f10610894576101008083540402835291602001916108bf565b820191906000526020600020905b8154815290600101906020018083116108a257829003601f168201915b5050505050905090565b6108db6108d4610d72565b8383611177565b5050565b6108f06108ea610d72565b83610e33565b61092f576040517f08c379a0000000000000000000000000000000000000000000000000000000008152600401610926906120db565b60405180910390fd5b61093b848484846112e3565b50505050565b6000426006600084815260200190815260200160002060000160149054906101000a900467ffffffffffffffff1667ffffffffffffffff16106109bc576006600083815260200190815260200160002060000160009054906101000a900473ffffffffffffffffffffffffffffffffffffffff1690506109c1565b600090505b919050565b60606109d182610d06565b610a10576040517f08c379a0000000000000000000000000000000000000000000000000000000008152600401610a0790612291565b60405180910390fd5b6000610a1a61133f565b90506000815111610a3a5760405180602001604052806000815250610a65565b80610a4484611356565b604051602001610a559291906122ed565b6040516020818303038152906040525b915050919050565b610a773384610e33565b610ab6576040517f08c379a0000000000000000000000000000000000000000000000000000000008152600401610aad906120db565b60405180910390fd5b6000600660008581526020019081526020016000209050828160000160006101000a81548173ffffffffffffffffffffffffffffffffffffffff021916908373ffffffffffffffffffffffffffffffffffffffff160217905550818160000160146101000a81548167ffffffffffffffff021916908367ffffffffffffffff1602179055508273ffffffffffffffffffffffffffffffffffffffff16847f4e06b4e7000e659094299b3533b47b6aa8ad048e95e872d23d1f4ee55af89cfe84604051610b829190612320565b60405180910390a350505050565b6000600560008473ffffffffffffffffffffffffffffffffffffffff1673ffffffffffffffffffffffffffffffffffffffff16815260200190815260200160002060008373ffffffffffffffffffffffffffffffffffffffff1673ffffffffffffffffffffffffffffffffffffffff16815260200190815260200160002060009054906101000a900460ff16905092915050565b60007f80ac58cd000000000000000000000000000000000000000000000000000000007bffffffffffffffffffffffffffffffffffffffffffffffffffffffff1916827bffffffffffffffffffffffffffffffffffffffffffffffffffffffff19161480610cef57507f5b5e139f000000000000000000000000000000000000000000000000000000007bffffffffffffffffffffffffffffffffffffffffffffffffffffffff1916827bffffffffffffffffffffffffffffffffffffffffffffffffffffffff1916145b80610cff5750610cfe826114b6565b5b9050919050565b60008073ffffffffffffffffffffffffffffffffffffffff166002600084815260200190815260200160002060009054906101000a900473ffffffffffffffffffffffffffffffffffffffff1673ffffffffffffffffffffffffffffffffffffffff1614159050919050565b600033905090565b816004600083815260200190815260200160002060006101000a81548173ffffffffffffffffffffffffffffffffffffffff021916908373ffffffffffffffffffffffffffffffffffffffff160217905550808273ffffffffffffffffffffffffffffffffffffffff16610ded83610691565b73ffffffffffffffffffffffffffffffffffffffff167f8c5be1e5ebec7d5bd14f71427d1e84f3dd0314c0f7b2291e5b200ac8c7c3b92560405160405180910390a45050565b6000610e3e82610d06565b610e7d576040517f08c379a0000000000000000000000000000000000000000000000000000000008152600401610e74906123ad565b60405180910390fd5b6000610e8883610691565b90508073ffffffffffffffffffffffffffffffffffffffff168473ffffffffffffffffffffffffffffffffffffffff161480610eca5750610ec98185610b90565b5b80610f0857508373ffffffffffffffffffffffffffffffffffffffff16610ef084610475565b73ffffffffffffffffffffffffffffffffffffffff16145b91505092915050565b8273ffffffffffffffffffffffffffffffffffffffff16610f3182610691565b73ffffffffffffffffffffffffffffffffffffffff1614610f87576040517f08c379a0000000000000000000000000000000000000000000000000000000008152600401610f7e9061243f565b60405180910390fd5b600073ffffffffffffffffffffffffffffffffffffffff168273ffffffffffffffffffffffffffffffffffffffff1603610ff6576040517f08c379a0000000000000000000000000000000000000000000000000000000008152600401610fed906124d1565b60405180910390fd5b611001838383611520565b61100c600082610d7a565b6001600360008573ffffffffffffffffffffffffffffffffffffffff1673ffffffffffffffffffffffffffffffffffffffff168152602001908152602001600020600082825461105c9190612520565b925050819055506001600360008473ffffffffffffffffffffffffffffffffffffffff1673ffffffffffffffffffffffffffffffffffffffff16815260200190815260200160002060008282546110b39190612554565b92505081905550816002600083815260200190815260200160002060006101000a81548173ffffffffffffffffffffffffffffffffffffffff021916908373ffffffffffffffffffffffffffffffffffffffff160217905550808273ffffffffffffffffffffffffffffffffffffffff168473ffffffffffffffffffffffffffffffffffffffff167fddf252ad1be2c89b69c2b068fc378daa952ba7f163c4a11628f55a4df523b3ef60405160405180910390a4611172838383611649565b505050565b8173ffffffffffffffffffffffffffffffffffffffff168373ffffffffffffffffffffffffffffffffffffffff16036111e5576040517f08c379a00000000000000000000000000000000000000000000000000000000081526004016111dc906125f6565b60405180910390fd5b80600560008573ffffffffffffffffffffffffffffffffffffffff1673ffffffffffffffffffffffffffffffffffffffff16815260200190815260200160002060008473ffffffffffffffffffffffffffffffffffffffff1673ffffffffffffffffffffffffffffffffffffffff16815260200190815260200160002060006101000a81548160ff0219169083151502179055508173ffffffffffffffffffffffffffffffffffffffff168373ffffffffffffffffffffffffffffffffffffffff167f17307eab39ab6107e8899845ad3d59bd9653f200f220920489ca2b5937696c31836040516112d691906118b1565b60405180910390a3505050565b6112ee848484610f11565b6112fa8484848461164e565b611339576040517f08c379a000000000000000000000000000000000000000000000000000000000815260040161133090612688565b60405180910390fd5b50505050565b606060405180602001604052806000815250905090565b60606000820361139d576040518060400160405280600181526020017f300000000000000000000000000000000000000000000000000000000000000081525090506114b1565b600082905060005b600082146113cf5780806113b8906126a8565b915050600a826113c8919061271f565b91506113a5565b60008167ffffffffffffffff8111156113eb576113ea611bd2565b5b6040519080825280601f01601f19166020018201604052801561141d5781602001600182028036833780820191505090505b5090505b600085146114aa576001826114369190612520565b9150600a856114459190612750565b60306114519190612554565b60f81b81838151811061146757611466612781565b5b60200101907effffffffffffffffffffffffffffffffffffffffffffffffffffffffffffff1916908160001a905350600a856114a3919061271f565b9450611421565b8093505050505b919050565b60007f01ffc9a7000000000000000000000000000000000000000000000000000000007bffffffffffffffffffffffffffffffffffffffffffffffffffffffff1916827bffffffffffffffffffffffffffffffffffffffffffffffffffffffff1916149050919050565b61152b8383836117d5565b8173ffffffffffffffffffffffffffffffffffffffff168373ffffffffffffffffffffffffffffffffffffffff16146116445760006006600083815260200190815260200160002060000160006101000a81548173ffffffffffffffffffffffffffffffffffffffff021916908373ffffffffffffffffffffffffffffffffffffffff16021790555060006006600083815260200190815260200160002060000160146101000a81548167ffffffffffffffff021916908367ffffffffffffffff160217905550600073ffffffffffffffffffffffffffffffffffffffff16817f4e06b4e7000e659094299b3533b47b6aa8ad048e95e872d23d1f4ee55af89cfe600060405161163b91906127f5565b60405180910390a35b505050565b505050565b600061166f8473ffffffffffffffffffffffffffffffffffffffff166117da565b156117c8578373ffffffffffffffffffffffffffffffffffffffff1663150b7a02611698610d72565b8786866040518563ffffffff1660e01b81526004016116ba9493929190612865565b6020604051808303816000875af19250505080156116f657506040513d601f19601f820116820180604052508101906116f391906128c6565b60015b611778573d8060008114611726576040519150601f19603f3d011682016040523d82523d6000602084013e61172b565b606091505b506000815103611770576040517f08c379a000000000000000000000000000000000000000000000000000000000815260040161176790612688565b60405180910390fd5b805181602001fd5b63150b7a0260e01b7bffffffffffffffffffffffffffffffffffffffffffffffffffffffff1916817bffffffffffffffffffffffffffffffffffffffffffffffffffffffff1916149150506117cd565b600190505b949350505050565b505050565b6000808273ffffffffffffffffffffffffffffffffffffffff163b119050919050565b6000604051905090565b600080fd5b600080fd5b60007fffffffff0000000000000000000000000000000000000000000000000000000082169050919050565b61184681611811565b811461185157600080fd5b50565b6000813590506118638161183d565b92915050565b60006020828403121561187f5761187e611807565b5b600061188d84828501611854565b91505092915050565b60008115159050919050565b6118ab81611896565b82525050565b60006020820190506118c660008301846118a2565b92915050565b600081519050919050565b600082825260208201905092915050565b60005b838110156119065780820151818401526020810190506118eb565b83811115611915576000848401525b50505050565b6000601f19601f8301169050919050565b6000611937826118cc565b61194181856118d7565b93506119518185602086016118e8565b61195a8161191b565b840191505092915050565b6000602082019050818103600083015261197f818461192c565b905092915050565b6000819050919050565b61199a81611987565b81146119a557600080fd5b50565b6000813590506119b781611991565b92915050565b6000602082840312156119d3576119d2611807565b5b60006119e1848285016119a8565b91505092915050565b600073ffffffffffffffffffffffffffffffffffffffff82169050919050565b6000611a15826119ea565b9050919050565b611a2581611a0a565b82525050565b6000602082019050611a406000830184611a1c565b92915050565b611a4f81611a0a565b8114611a5a57600080fd5b50565b600081359050611a6c81611a46565b92915050565b60008060408385031215611a8957611a88611807565b5b6000611a9785828601611a5d565b9250506020611aa8858286016119a8565b9150509250929050565b600080600060608486031215611acb57611aca611807565b5b6000611ad986828701611a5d565b9350506020611aea86828701611a5d565b9250506040611afb868287016119a8565b9150509250925092565b600060208284031215611b1b57611b1a611807565b5b6000611b2984828501611a5d565b91505092915050565b611b3b81611987565b82525050565b6000602082019050611b566000830184611b32565b92915050565b611b6581611896565b8114611b7057600080fd5b50565b600081359050611b8281611b5c565b92915050565b60008060408385031215611b9f57611b9e611807565b5b6000611bad85828601611a5d565b9250506020611bbe85828601611b73565b9150509250929050565b600080fd5b600080fd5b7f4e487b7100000000000000000000000000000000000000000000000000000000600052604160045260246000fd5b611c0a8261191b565b810181811067ffffffffffffffff82111715611c2957611c28611bd2565b5b80604052505050565b6000611c3c6117fd565b9050611c488282611c01565b919050565b600067ffffffffffffffff821115611c6857611c67611bd2565b5b611c718261191b565b9050602081019050919050565b82818337600083830152505050565b6000611ca0611c9b84611c4d565b611c32565b905082815260208101848484011115611cbc57611cbb611bcd565b5b611cc7848285611c7e565b509392505050565b600082601f830112611ce457611ce3611bc8565b5b8135611cf4848260208601611c8d565b91505092915050565b60008060008060808587031215611d1757611d16611807565b5b6000611d2587828801611a5d565b9450506020611d3687828801611a5d565b9350506040611d47878288016119a8565b925050606085013567ffffffffffffffff811115611d6857611d6761180c565b5b611d7487828801611ccf565b91505092959194509250565b600067ffffffffffffffff82169050919050565b611d9d81611d80565b8114611da857600080fd5b50565b600081359050611dba81611d94565b92915050565b600080600060608486031215611dd957611dd8611807565b5b6000611de7868287016119a8565b9350506020611df886828701611a5d565b9250506040611e0986828701611dab565b9150509250925092565b60008060408385031215611e2a57611e29611807565b5b6000611e3885828601611a5d565b9250506020611e4985828601611a5d565b9150509250929050565b7f4e487b7100000000000000000000000000000000000000000000000000000000600052602260045260246000fd5b60006002820490506001821680611e9a57607f821691505b602082108103611ead57611eac611e53565b5b50919050565b7f4552433732313a20617070726f76656420717565727920666f72206e6f6e657860008201527f697374656e7420746f6b656e0000000000000000000000000000000000000000602082015250565b6000611f0f602c836118d7565b9150611f1a82611eb3565b604082019050919050565b60006020820190508181036000830152611f3e81611f02565b9050919050565b7f4552433732313a20617070726f76616c20746f2063757272656e74206f776e6560008201527f7200000000000000000000000000000000000000000000000000000000000000602082015250565b6000611fa16021836118d7565b9150611fac82611f45565b604082019050919050565b60006020820190508181036000830152611fd081611f94565b9050919050565b7f4552433732313a20617070726f76652063616c6c6572206973206e6f74206f7760008201527f6e6572206e6f7220617070726f76656420666f7220616c6c0000000000000000602082015250565b60006120336038836118d7565b915061203e82611fd7565b604082019050919050565b6000602082019050818103600083015261206281612026565b9050919050565b7f4552433732313a207472616e736665722063616c6c6572206973206e6f74206f60008201527f776e6572206e6f7220617070726f766564000000000000000000000000000000602082015250565b60006120c56031836118d7565b91506120d082612069565b604082019050919050565b600060208201905081810360008301526120f4816120b8565b9050919050565b7f4552433732313a206f776e657220717565727920666f72206e6f6e657869737460008201527f656e7420746f6b656e0000000000000000000000000000000000000000000000602082015250565b60006121576029836118d7565b9150612162826120fb565b604082019050919050565b600060208201905081810360008301526121868161214a565b9050919050565b7f4552433732313a2062616c616e636520717565727920666f7220746865207a6560008201527f726f206164647265737300000000000000000000000000000000000000000000602082015250565b60006121e9602a836118d7565b91506121f48261218d565b604082019050919050565b60006020820190508181036000830152612218816121dc565b9050919050565b7f4552433732314d657461646174613a2055524920717565727920666f72206e6f60008201527f6e6578697374656e7420746f6b656e0000000000000000000000000000000000602082015250565b600061227b602f836118d7565b91506122868261221f565b604082019050919050565b600060208201905081810360008301526122aa8161226e565b9050919050565b600081905092915050565b60006122c7826118cc565b6122d181856122b1565b93506122e18185602086016118e8565b80840191505092915050565b60006122f982856122bc565b915061230582846122bc565b91508190509392505050565b61231a81611d80565b82525050565b60006020820190506123356000830184612311565b92915050565b7f4552433732313a206f70657261746f7220717565727920666f72206e6f6e657860008201527f697374656e7420746f6b656e0000000000000000000000000000000000000000602082015250565b6000612397602c836118d7565b91506123a28261233b565b604082019050919050565b600060208201905081810360008301526123c68161238a565b9050919050565b7f4552433732313a207472616e736665722066726f6d20696e636f72726563742060008201527f6f776e6572000000000000000000000000000000000000000000000000000000602082015250565b60006124296025836118d7565b9150612434826123cd565b604082019050919050565b600060208201905081810360008301526124588161241c565b9050919050565b7f4552433732313a207472616e7366657220746f20746865207a65726f2061646460008201527f7265737300000000000000000000000000000000000000000000000000000000602082015250565b60006124bb6024836118d7565b91506124c68261245f565b604082019050919050565b600060208201905081810360008301526124ea816124ae565b9050919050565b7f4e487b7100000000000000000000000000000000000000000000000000000000600052601160045260246000fd5b600061252b82611987565b915061253683611987565b925082821015612549576125486124f1565b5b828203905092915050565b600061255f82611987565b915061256a83611987565b9250827fffffffffffffffffffffffffffffffffffffffffffffffffffffffffffffffff0382111561259f5761259e6124f1565b5b828201905092915050565b7f4552433732313a20617070726f766520746f2063616c6c657200000000000000600082015250565b60006125e06019836118d7565b91506125eb826125aa565b602082019050919050565b6000602082019050818103600083015261260f816125d3565b9050919050565b7f4552433732313a207472616e7366657220746f206e6f6e20455243373231526560008201527f63656976657220696d706c656d656e7465720000000000000000000000000000602082015250565b60006126726032836118d7565b915061267d82612616565b604082019050919050565b600060208201905081810360008301526126a181612665565b9050919050565b60006126b382611987565b91507fffffffffffffffffffffffffffffffffffffffffffffffffffffffffffffffff82036126e5576126e46124f1565b5b600182019050919050565b7f4e487b7100000000000000000000000000000000000000000000000000000000600052601260045260246000fd5b600061272a82611987565b915061273583611987565b925082612745576127446126f0565b5b828204905092915050565b600061275b82611987565b915061276683611987565b925082612776576127756126f0565b5b828206905092915050565b7f4e487b7100000000000000000000000000000000000000000000000000000000600052603260045260246000fd5b6000819050919050565b6000819050919050565b60006127df6127da6127d5846127b0565b6127ba565b611d80565b9050919050565b6127ef816127c4565b82525050565b600060208201905061280a60008301846127e6565b92915050565b600081519050919050565b600082825260208201905092915050565b600061283782612810565b612841818561281b565b93506128518185602086016118e8565b61285a8161191b565b840191505092915050565b600060808201905061287a6000830187611a1c565b6128876020830186611a1c565b6128946040830185611b32565b81810360608301526128a6818461282c565b905095945050505050565b6000815190506128c08161183d565b92915050565b6000602082840312156128dc576128db611807565b5b60006128ea848285016128b1565b9150509291505056fea2646970667358221220c7e17c50a543cb0712eb82ec82dc5540bde1935db22003a53e0b1873a3a425b564736f6c634300080d0033",
  "immutableReferences": {},
  "source": "// SPDX-License-Identifier: MIT\npragma solidity ^0.8.0; \n\nimport \"@openzeppelin/contracts/token/ERC721/ERC721.sol\";\nimport \"./IERC4907.sol\";\n\ncontract ERC4907 is ERC721, IERC4907 {\n    struct UserInfo \n    {\n        address user;   // address of user role\n        uint64 expires; // unix timestamp, user expires\n    }\n\n    mapping (uint256  => UserInfo) internal _users;\n\n    constructor(string memory name_, string memory symbol_)\n     ERC721(name_,symbol_)\n     {         \n     }\n    \n    /// @notice set the user and expires of a NFT\n    /// @dev The zero address indicates there is no user \n    /// Throws if `tokenId` is not valid NFT\n    /// @param user  The new user of the NFT\n    /// @param expires  UNIX timestamp, The new user could use the NFT before expires\n    function setUser(uint256 tokenId, address user, uint64 expires) public virtual{\n        require(_isApprovedOrOwner(msg.sender, tokenId),\"ERC721: transfer caller is not owner nor approved\");\n        UserInfo storage info =  _users[tokenId];\n        info.user = user;\n        info.expires = expires;\n        emit UpdateUser(tokenId,user,expires);\n    }\n\n    /// @notice Get the user address of an NFT\n    /// @dev The zero address indicates that there is no user or the user is expired\n    /// @param tokenId The NFT to get the user address for\n    /// @return The user address for this NFT\n    function userOf(uint256 tokenId)public view virtual returns(address){\n        if( uint256(_users[tokenId].expires) >=  block.timestamp){\n            return  _users[tokenId].user; \n        }\n        else{\n            return address(0);\n        }\n    }\n\n    /// @notice Get the user expires of an NFT\n    /// @dev The zero value indicates that there is no user \n    /// @param tokenId The NFT to get the user expires for\n    /// @return The user expires for this NFT\n    function userExpires(uint256 tokenId) public view virtual returns(uint256){\n        return _users[tokenId].expires;\n    }\n\n    /// @dev See {IERC165-supportsInterface}.\n    function supportsInterface(bytes4 interfaceId) public view virtual override returns (bool) {\n        return interfaceId == type(IERC4907).interfaceId || super.supportsInterface(interfaceId);\n    }\n\n    function _beforeTokenTransfer(\n        address from,\n        address to,\n        uint256 tokenId\n    ) internal virtual override{\n        super._beforeTokenTransfer(from, to, tokenId);\n\n        if (from != to) {\n            _users[tokenId].user = address(0);\n            _users[tokenId].expires = 0;\n            emit UpdateUser(tokenId,address(0),0);\n        }\n    }\n} \n\n",
  "sourcePath": "c:\\Users\\jprecioso\\workspaces\\personal\\03_erc4907_truffle\\contracts\\ERC4907.sol",
  "compiler": {
    "name": "solc",
    "version": "0.8.13+commit.abaa5c0e.Emscripten.clang"
  },
  "schemaVersion": "3.4.13",
  "updatedAt": "2023-04-06T16:21:44.239Z",
  "devdoc": {
    "kind": "dev",
    "methods": {
      "approve(address,uint256)": {
        "details": "See {IERC721-approve}."
      },
      "balanceOf(address)": {
        "details": "See {IERC721-balanceOf}."
      },
      "getApproved(uint256)": {
        "details": "See {IERC721-getApproved}."
      },
      "isApprovedForAll(address,address)": {
        "details": "See {IERC721-isApprovedForAll}."
      },
      "name()": {
        "details": "See {IERC721Metadata-name}."
      },
      "ownerOf(uint256)": {
        "details": "See {IERC721-ownerOf}."
      },
      "safeTransferFrom(address,address,uint256)": {
        "details": "See {IERC721-safeTransferFrom}."
      },
      "safeTransferFrom(address,address,uint256,bytes)": {
        "details": "See {IERC721-safeTransferFrom}."
      },
      "setApprovalForAll(address,bool)": {
        "details": "See {IERC721-setApprovalForAll}."
      },
      "setUser(uint256,address,uint64)": {
        "details": "The zero address indicates there is no user  Throws if `tokenId` is not valid NFT",
        "params": {
          "expires": "UNIX timestamp, The new user could use the NFT before expires",
          "user": "The new user of the NFT"
        }
      },
      "supportsInterface(bytes4)": {
        "details": "See {IERC165-supportsInterface}."
      },
      "symbol()": {
        "details": "See {IERC721Metadata-symbol}."
      },
      "tokenURI(uint256)": {
        "details": "See {IERC721Metadata-tokenURI}."
      },
      "transferFrom(address,address,uint256)": {
        "details": "See {IERC721-transferFrom}."
      },
      "userExpires(uint256)": {
        "details": "The zero value indicates that there is no user ",
        "params": {
          "tokenId": "The NFT to get the user expires for"
        },
        "returns": {
          "_0": "The user expires for this NFT"
        }
      },
      "userOf(uint256)": {
        "details": "The zero address indicates that there is no user or the user is expired",
        "params": {
          "tokenId": "The NFT to get the user address for"
        },
        "returns": {
          "_0": "The user address for this NFT"
        }
      }
    },
    "version": 1
  },
  "userdoc": {
    "events": {
      "UpdateUser(uint256,address,uint64)": {
        "notice": "Emitted when the `user` of an NFT or the `expires` of the `user` is changed The zero address for user indicates that there is no user address"
      }
    },
    "kind": "user",
    "methods": {
      "setUser(uint256,address,uint64)": {
        "notice": "set the user and expires of a NFT"
      },
      "userExpires(uint256)": {
        "notice": "Get the user expires of an NFT"
      },
      "userOf(uint256)": {
        "notice": "Get the user address of an NFT"
      }
    },
    "version": 1
  }
}