{
  "contractName": "ERC4907Demo",
  "abi": [
    {
      "inputs": [
        {
          "internalType": "string",
          "name": "name_",
          "type": "string"
        },
        {
          "internalType": "string",
          "name": "symbol_",
          "type": "string"
        }
      ],
      "stateMutability": "nonpayable",
      "type": "constructor"
    },
    {
      "anonymous": false,
      "inputs": [
        {
          "indexed": true,
          "internalType": "address",
          "name": "owner",
          "type": "address"
        },
        {
          "indexed": true,
          "internalType": "address",
          "name": "approved",
          "type": "address"
        },
        {
          "indexed": true,
          "internalType": "uint256",
          "name": "tokenId",
          "type": "uint256"
        }
      ],
      "name": "Approval",
      "type": "event"
    },
    {
      "anonymous": false,
      "inputs": [
        {
          "indexed": true,
          "internalType": "address",
          "name": "owner",
          "type": "address"
        },
        {
          "indexed": true,
          "internalType": "address",
          "name": "operator",
          "type": "address"
        },
        {
          "indexed": false,
          "internalType": "bool",
          "name": "approved",
          "type": "bool"
        }
      ],
      "name": "ApprovalForAll",
      "type": "event"
    },
    {
      "anonymous": false,
      "inputs": [
        {
          "indexed": true,
          "internalType": "address",
          "name": "from",
          "type": "address"
        },
        {
          "indexed": true,
          "internalType": "address",
          "name": "to",
          "type": "address"
        },
        {
          "indexed": true,
          "internalType": "uint256",
          "name": "tokenId",
          "type": "uint256"
        }
      ],
      "name": "Transfer",
      "type": "event"
    },
    {
      "anonymous": false,
      "inputs": [
        {
          "indexed": true,
          "internalType": "uint256",
          "name": "tokenId",
          "type": "uint256"
        },
        {
          "indexed": true,
          "internalType": "address",
          "name": "user",
          "type": "address"
        },
        {
          "indexed": false,
          "internalType": "uint64",
          "name": "expires",
          "type": "uint64"
        }
      ],
      "name": "UpdateUser",
      "type": "event"
    },
    {
      "inputs": [
        {
          "internalType": "address",
          "name": "to",
          "type": "address"
        },
        {
          "internalType": "uint256",
          "name": "tokenId",
          "type": "uint256"
        }
      ],
      "name": "approve",
      "outputs": [],
      "stateMutability": "nonpayable",
      "type": "function"
    },
    {
      "inputs": [
        {
          "internalType": "address",
          "name": "owner",
          "type": "address"
        }
      ],
      "name": "balanceOf",
      "outputs": [
        {
          "internalType": "uint256",
          "name": "",
          "type": "uint256"
        }
      ],
      "stateMutability": "view",
      "type": "function",
      "constant": true
    },
    {
      "inputs": [
        {
          "internalType": "uint256",
          "name": "tokenId",
          "type": "uint256"
        }
      ],
      "name": "getApproved",
      "outputs": [
        {
          "internalType": "address",
          "name": "",
          "type": "address"
        }
      ],
      "stateMutability": "view",
      "type": "function",
      "constant": true
    },
    {
      "inputs": [
        {
          "internalType": "address",
          "name": "owner",
          "type": "address"
        },
        {
          "internalType": "address",
          "name": "operator",
          "type": "address"
        }
      ],
      "name": "isApprovedForAll",
      "outputs": [
        {
          "internalType": "bool",
          "name": "",
          "type": "bool"
        }
      ],
      "stateMutability": "view",
      "type": "function",
      "constant": true
    },
    {
      "inputs": [],
      "name": "name",
      "outputs": [
        {
          "internalType": "string",
          "name": "",
          "type": "string"
        }
      ],
      "stateMutability": "view",
      "type": "function",
      "constant": true
    },
    {
      "inputs": [
        {
          "internalType": "uint256",
          "name": "tokenId",
          "type": "uint256"
        }
      ],
      "name": "ownerOf",
      "outputs": [
        {
          "internalType": "address",
          "name": "",
          "type": "address"
        }
      ],
      "stateMutability": "view",
      "type": "function",
      "constant": true
    },
    {
      "inputs": [
        {
          "internalType": "address",
          "name": "from",
          "type": "address"
        },
        {
          "internalType": "address",
          "name": "to",
          "type": "address"
        },
        {
          "internalType": "uint256",
          "name": "tokenId",
          "type": "uint256"
        }
      ],
      "name": "safeTransferFrom",
      "outputs": [],
      "stateMutability": "nonpayable",
      "type": "function"
    },
    {
      "inputs": [
        {
          "internalType": "address",
          "name": "from",
          "type": "address"
        },
        {
          "internalType": "address",
          "name": "to",
          "type": "address"
        },
        {
          "internalType": "uint256",
          "name": "tokenId",
          "type": "uint256"
        },
        {
          "internalType": "bytes",
          "name": "_data",
          "type": "bytes"
        }
      ],
      "name": "safeTransferFrom",
      "outputs": [],
      "stateMutability": "nonpayable",
      "type": "function"
    },
    {
      "inputs": [
        {
          "internalType": "address",
          "name": "operator",
          "type": "address"
        },
        {
          "internalType": "bool",
          "name": "approved",
          "type": "bool"
        }
      ],
      "name": "setApprovalForAll",
      "outputs": [],
      "stateMutability": "nonpayable",
      "type": "function"
    },
    {
      "inputs": [
        {
          "internalType": "uint256",
          "name": "tokenId",
          "type": "uint256"
        },
        {
          "internalType": "address",
          "name": "user",
          "type": "address"
        },
        {
          "internalType": "uint64",
          "name": "expires",
          "type": "uint64"
        }
      ],
      "name": "setUser",
      "outputs": [],
      "stateMutability": "nonpayable",
      "type": "function"
    },
    {
      "inputs": [
        {
          "internalType": "bytes4",
          "name": "interfaceId",
          "type": "bytes4"
        }
      ],
      "name": "supportsInterface",
      "outputs": [
        {
          "internalType": "bool",
          "name": "",
          "type": "bool"
        }
      ],
      "stateMutability": "view",
      "type": "function",
      "constant": true
    },
    {
      "inputs": [],
      "name": "symbol",
      "outputs": [
        {
          "internalType": "string",
          "name": "",
          "type": "string"
        }
      ],
      "stateMutability": "view",
      "type": "function",
      "constant": true
    },
    {
      "inputs": [
        {
          "internalType": "uint256",
          "name": "tokenId",
          "type": "uint256"
        }
      ],
      "name": "tokenURI",
      "outputs": [
        {
          "internalType": "string",
          "name": "",
          "type": "string"
        }
      ],
      "stateMutability": "view",
      "type": "function",
      "constant": true
    },
    {
      "inputs": [
        {
          "internalType": "address",
          "name": "from",
          "type": "address"
        },
        {
          "internalType": "address",
          "name": "to",
          "type": "address"
        },
        {
          "internalType": "uint256",
          "name": "tokenId",
          "type": "uint256"
        }
      ],
      "name": "transferFrom",
      "outputs": [],
      "stateMutability": "nonpayable",
      "type": "function"
    },
    {
      "inputs": [
        {
          "internalType": "uint256",
          "name": "tokenId",
          "type": "uint256"
        }
      ],
      "name": "userExpires",
      "outputs": [
        {
          "internalType": "uint256",
          "name": "",
          "type": "uint256"
        }
      ],
      "stateMutability": "view",
      "type": "function",
      "constant": true
    },
    {
      "inputs": [
        {
          "internalType": "uint256",
          "name": "tokenId",
          "type": "uint256"
        }
      ],
      "name": "userOf",
      "outputs": [
        {
          "internalType": "address",
          "name": "",
          "type": "address"
        }
      ],
      "stateMutability": "view",
      "type": "function",
      "constant": true
    },
    {
      "inputs": [],
      "name": "mint",
      "outputs": [],
      "stateMutability": "nonpayable",
      "type": "function"
    }
  ],
  "bytecode": "0x608060405260016007553480156200001657600080fd5b5060405162002fd938038062002fd983398181016040528101906200003c9190620002cb565b818181818160009080519060200190620000589291906200007e565b508060019080519060200190620000719291906200007e565b50505050505050620003b4565b8280546200008c906200037f565b90600052602060002090601f016020900481019282620000b05760008555620000fc565b82601f10620000cb57805160ff1916838001178555620000fc565b82800160010185558215620000fc579182015b82811115620000fb578251825591602001919060010190620000de565b5b5090506200010b91906200010f565b5090565b5b808211156200012a57600081600090555060010162000110565b5090565b6000604051905090565b600080fd5b600080fd5b600080fd5b600080fd5b6000601f19601f8301169050919050565b7f4e487b7100000000000000000000000000000000000000000000000000000000600052604160045260246000fd5b62000197826200014c565b810181811067ffffffffffffffff82111715620001b957620001b86200015d565b5b80604052505050565b6000620001ce6200012e565b9050620001dc82826200018c565b919050565b600067ffffffffffffffff821115620001ff57620001fe6200015d565b5b6200020a826200014c565b9050602081019050919050565b60005b83811015620002375780820151818401526020810190506200021a565b8381111562000247576000848401525b50505050565b6000620002646200025e84620001e1565b620001c2565b90508281526020810184848401111562000283576200028262000147565b5b6200029084828562000217565b509392505050565b600082601f830112620002b057620002af62000142565b5b8151620002c28482602086016200024d565b91505092915050565b60008060408385031215620002e557620002e462000138565b5b600083015167ffffffffffffffff8111156200030657620003056200013d565b5b620003148582860162000298565b925050602083015167ffffffffffffffff8111156200033857620003376200013d565b5b620003468582860162000298565b9150509250929050565b7f4e487b7100000000000000000000000000000000000000000000000000000000600052602260045260246000fd5b600060028204905060018216806200039857607f821691505b602082108103620003ae57620003ad62000350565b5b50919050565b612c1580620003c46000396000f3fe608060405234801561001057600080fd5b506004361061010b5760003560e01c806370a08231116100a2578063b88d4fde11610071578063b88d4fde146102b6578063c2f1f14a146102d2578063c87b56dd14610302578063e030565e14610332578063e985e9c51461034e5761010b565b806370a082311461021c5780638fc88c481461024c57806395d89b411461027c578063a22cb4651461029a5761010b565b80631249c58b116100de5780631249c58b146101aa57806323b872dd146101b457806342842e0e146101d05780636352211e146101ec5761010b565b806301ffc9a71461011057806306fdde0314610140578063081812fc1461015e578063095ea7b31461018e575b600080fd5b61012a60048036038101906101259190611a7d565b61037e565b6040516101379190611ac5565b60405180910390f35b6101486103f8565b6040516101559190611b79565b60405180910390f35b61017860048036038101906101739190611bd1565b61048a565b6040516101859190611c3f565b60405180910390f35b6101a860048036038101906101a39190611c86565b61050f565b005b6101b2610626565b005b6101ce60048036038101906101c99190611cc6565b61064c565b005b6101ea60048036038101906101e59190611cc6565b6106ac565b005b61020660048036038101906102019190611bd1565b6106cc565b6040516102139190611c3f565b60405180910390f35b61023660048036038101906102319190611d19565b61077d565b6040516102439190611d55565b60405180910390f35b61026660048036038101906102619190611bd1565b610834565b6040516102739190611d55565b60405180910390f35b610284610872565b6040516102919190611b79565b60405180910390f35b6102b460048036038101906102af9190611d9c565b610904565b005b6102d060048036038101906102cb9190611f11565b61091a565b005b6102ec60048036038101906102e79190611bd1565b61097c565b6040516102f99190611c3f565b60405180910390f35b61031c60048036038101906103179190611bd1565b610a01565b6040516103299190611b79565b60405180910390f35b61034c60048036038101906103479190611fd4565b610aa8565b005b61036860048036038101906103639190612027565b610bcb565b6040516103759190611ac5565b60405180910390f35b60007fad092b5c000000000000000000000000000000000000000000000000000000007bffffffffffffffffffffffffffffffffffffffffffffffffffffffff1916827bffffffffffffffffffffffffffffffffffffffffffffffffffffffff191614806103f157506103f082610c5f565b5b9050919050565b60606000805461040790612096565b80601f016020809104026020016040519081016040528092919081815260200182805461043390612096565b80156104805780601f1061045557610100808354040283529160200191610480565b820191906000526020600020905b81548152906001019060200180831161046357829003601f168201915b5050505050905090565b600061049582610d41565b6104d4576040517f08c379a00000000000000000000000000000000000000000000000000000000081526004016104cb90612139565b60405180910390fd5b6004600083815260200190815260200160002060009054906101000a900473ffffffffffffffffffffffffffffffffffffffff169050919050565b600061051a826106cc565b90508073ffffffffffffffffffffffffffffffffffffffff168373ffffffffffffffffffffffffffffffffffffffff160361058a576040517f08c379a0000000000000000000000000000000000000000000000000000000008152600401610581906121cb565b60405180910390fd5b8073ffffffffffffffffffffffffffffffffffffffff166105a9610dad565b73ffffffffffffffffffffffffffffffffffffffff1614806105d857506105d7816105d2610dad565b610bcb565b5b610617576040517f08c379a000000000000000000000000000000000000000000000000000000000815260040161060e9061225d565b60405180910390fd5b6106218383610db5565b505050565b61063233600754610e6e565b60076000815480929190610645906122ac565b9190505550565b61065d610657610dad565b82611047565b61069c576040517f08c379a000000000000000000000000000000000000000000000000000000000815260040161069390612366565b60405180910390fd5b6106a7838383611125565b505050565b6106c78383836040518060200160405280600081525061091a565b505050565b6000806002600084815260200190815260200160002060009054906101000a900473ffffffffffffffffffffffffffffffffffffffff169050600073ffffffffffffffffffffffffffffffffffffffff168173ffffffffffffffffffffffffffffffffffffffff1603610774576040517f08c379a000000000000000000000000000000000000000000000000000000000815260040161076b906123f8565b60405180910390fd5b80915050919050565b60008073ffffffffffffffffffffffffffffffffffffffff168273ffffffffffffffffffffffffffffffffffffffff16036107ed576040517f08c379a00000000000000000000000000000000000000000000000000000000081526004016107e49061248a565b60405180910390fd5b600360008373ffffffffffffffffffffffffffffffffffffffff1673ffffffffffffffffffffffffffffffffffffffff168152602001908152602001600020549050919050565b60006006600083815260200190815260200160002060000160149054906101000a900467ffffffffffffffff1667ffffffffffffffff169050919050565b60606001805461088190612096565b80601f01602080910402602001604051908101604052809291908181526020018280546108ad90612096565b80156108fa5780601f106108cf576101008083540402835291602001916108fa565b820191906000526020600020905b8154815290600101906020018083116108dd57829003601f168201915b5050505050905090565b61091661090f610dad565b838361138b565b5050565b61092b610925610dad565b83611047565b61096a576040517f08c379a000000000000000000000000000000000000000000000000000000000815260040161096190612366565b60405180910390fd5b610976848484846114f7565b50505050565b6000426006600084815260200190815260200160002060000160149054906101000a900467ffffffffffffffff1667ffffffffffffffff16106109f7576006600083815260200190815260200160002060000160009054906101000a900473ffffffffffffffffffffffffffffffffffffffff1690506109fc565b600090505b919050565b6060610a0c82610d41565b610a4b576040517f08c379a0000000000000000000000000000000000000000000000000000000008152600401610a429061251c565b60405180910390fd5b6000610a55611553565b90506000815111610a755760405180602001604052806000815250610aa0565b80610a7f8461156a565b604051602001610a90929190612578565b6040516020818303038152906040525b915050919050565b610ab23384611047565b610af1576040517f08c379a0000000000000000000000000000000000000000000000000000000008152600401610ae890612366565b60405180910390fd5b6000600660008581526020019081526020016000209050828160000160006101000a81548173ffffffffffffffffffffffffffffffffffffffff021916908373ffffffffffffffffffffffffffffffffffffffff160217905550818160000160146101000a81548167ffffffffffffffff021916908367ffffffffffffffff1602179055508273ffffffffffffffffffffffffffffffffffffffff16847f4e06b4e7000e659094299b3533b47b6aa8ad048e95e872d23d1f4ee55af89cfe84604051610bbd91906125ab565b60405180910390a350505050565b6000600560008473ffffffffffffffffffffffffffffffffffffffff1673ffffffffffffffffffffffffffffffffffffffff16815260200190815260200160002060008373ffffffffffffffffffffffffffffffffffffffff1673ffffffffffffffffffffffffffffffffffffffff16815260200190815260200160002060009054906101000a900460ff16905092915050565b60007f80ac58cd000000000000000000000000000000000000000000000000000000007bffffffffffffffffffffffffffffffffffffffffffffffffffffffff1916827bffffffffffffffffffffffffffffffffffffffffffffffffffffffff19161480610d2a57507f5b5e139f000000000000000000000000000000000000000000000000000000007bffffffffffffffffffffffffffffffffffffffffffffffffffffffff1916827bffffffffffffffffffffffffffffffffffffffffffffffffffffffff1916145b80610d3a5750610d39826116ca565b5b9050919050565b60008073ffffffffffffffffffffffffffffffffffffffff166002600084815260200190815260200160002060009054906101000a900473ffffffffffffffffffffffffffffffffffffffff1673ffffffffffffffffffffffffffffffffffffffff1614159050919050565b600033905090565b816004600083815260200190815260200160002060006101000a81548173ffffffffffffffffffffffffffffffffffffffff021916908373ffffffffffffffffffffffffffffffffffffffff160217905550808273ffffffffffffffffffffffffffffffffffffffff16610e28836106cc565b73ffffffffffffffffffffffffffffffffffffffff167f8c5be1e5ebec7d5bd14f71427d1e84f3dd0314c0f7b2291e5b200ac8c7c3b92560405160405180910390a45050565b600073ffffffffffffffffffffffffffffffffffffffff168273ffffffffffffffffffffffffffffffffffffffff1603610edd576040517f08c379a0000000000000000000000000000000000000000000000000000000008152600401610ed490612612565b60405180910390fd5b610ee681610d41565b15610f26576040517f08c379a0000000000000000000000000000000000000000000000000000000008152600401610f1d9061267e565b60405180910390fd5b610f3260008383611734565b6001600360008473ffffffffffffffffffffffffffffffffffffffff1673ffffffffffffffffffffffffffffffffffffffff1681526020019081526020016000206000828254610f82919061269e565b92505081905550816002600083815260200190815260200160002060006101000a81548173ffffffffffffffffffffffffffffffffffffffff021916908373ffffffffffffffffffffffffffffffffffffffff160217905550808273ffffffffffffffffffffffffffffffffffffffff16600073ffffffffffffffffffffffffffffffffffffffff167fddf252ad1be2c89b69c2b068fc378daa952ba7f163c4a11628f55a4df523b3ef60405160405180910390a46110436000838361185d565b5050565b600061105282610d41565b611091576040517f08c379a000000000000000000000000000000000000000000000000000000000815260040161108890612766565b60405180910390fd5b600061109c836106cc565b90508073ffffffffffffffffffffffffffffffffffffffff168473ffffffffffffffffffffffffffffffffffffffff1614806110de57506110dd8185610bcb565b5b8061111c57508373ffffffffffffffffffffffffffffffffffffffff166111048461048a565b73ffffffffffffffffffffffffffffffffffffffff16145b91505092915050565b8273ffffffffffffffffffffffffffffffffffffffff16611145826106cc565b73ffffffffffffffffffffffffffffffffffffffff161461119b576040517f08c379a0000000000000000000000000000000000000000000000000000000008152600401611192906127f8565b60405180910390fd5b600073ffffffffffffffffffffffffffffffffffffffff168273ffffffffffffffffffffffffffffffffffffffff160361120a576040517f08c379a00000000000000000000000000000000000000000000000000000000081526004016112019061288a565b60405180910390fd5b611215838383611734565b611220600082610db5565b6001600360008573ffffffffffffffffffffffffffffffffffffffff1673ffffffffffffffffffffffffffffffffffffffff168152602001908152602001600020600082825461127091906128aa565b925050819055506001600360008473ffffffffffffffffffffffffffffffffffffffff1673ffffffffffffffffffffffffffffffffffffffff16815260200190815260200160002060008282546112c7919061269e565b92505081905550816002600083815260200190815260200160002060006101000a81548173ffffffffffffffffffffffffffffffffffffffff021916908373ffffffffffffffffffffffffffffffffffffffff160217905550808273ffffffffffffffffffffffffffffffffffffffff168473ffffffffffffffffffffffffffffffffffffffff167fddf252ad1be2c89b69c2b068fc378daa952ba7f163c4a11628f55a4df523b3ef60405160405180910390a461138683838361185d565b505050565b8173ffffffffffffffffffffffffffffffffffffffff168373ffffffffffffffffffffffffffffffffffffffff16036113f9576040517f08c379a00000000000000000000000000000000000000000000000000000000081526004016113f09061292a565b60405180910390fd5b80600560008573ffffffffffffffffffffffffffffffffffffffff1673ffffffffffffffffffffffffffffffffffffffff16815260200190815260200160002060008473ffffffffffffffffffffffffffffffffffffffff1673ffffffffffffffffffffffffffffffffffffffff16815260200190815260200160002060006101000a81548160ff0219169083151502179055508173ffffffffffffffffffffffffffffffffffffffff168373ffffffffffffffffffffffffffffffffffffffff167f17307eab39ab6107e8899845ad3d59bd9653f200f220920489ca2b5937696c31836040516114ea9190611ac5565b60405180910390a3505050565b611502848484611125565b61150e84848484611862565b61154d576040517f08c379a0000000000000000000000000000000000000000000000000000000008152600401611544906129bc565b60405180910390fd5b50505050565b606060405180602001604052806000815250905090565b6060600082036115b1576040518060400160405280600181526020017f300000000000000000000000000000000000000000000000000000000000000081525090506116c5565b600082905060005b600082146115e35780806115cc906122ac565b915050600a826115dc9190612a0b565b91506115b9565b60008167ffffffffffffffff8111156115ff576115fe611de6565b5b6040519080825280601f01601f1916602001820160405280156116315781602001600182028036833780820191505090505b5090505b600085146116be5760018261164a91906128aa565b9150600a856116599190612a3c565b6030611665919061269e565b60f81b81838151811061167b5761167a612a6d565b5b60200101907effffffffffffffffffffffffffffffffffffffffffffffffffffffffffffff1916908160001a905350600a856116b79190612a0b565b9450611635565b8093505050505b919050565b60007f01ffc9a7000000000000000000000000000000000000000000000000000000007bffffffffffffffffffffffffffffffffffffffffffffffffffffffff1916827bffffffffffffffffffffffffffffffffffffffffffffffffffffffff1916149050919050565b61173f8383836119e9565b8173ffffffffffffffffffffffffffffffffffffffff168373ffffffffffffffffffffffffffffffffffffffff16146118585760006006600083815260200190815260200160002060000160006101000a81548173ffffffffffffffffffffffffffffffffffffffff021916908373ffffffffffffffffffffffffffffffffffffffff16021790555060006006600083815260200190815260200160002060000160146101000a81548167ffffffffffffffff021916908367ffffffffffffffff160217905550600073ffffffffffffffffffffffffffffffffffffffff16817f4e06b4e7000e659094299b3533b47b6aa8ad048e95e872d23d1f4ee55af89cfe600060405161184f9190612ae1565b60405180910390a35b505050565b505050565b60006118838473ffffffffffffffffffffffffffffffffffffffff166119ee565b156119dc578373ffffffffffffffffffffffffffffffffffffffff1663150b7a026118ac610dad565b8786866040518563ffffffff1660e01b81526004016118ce9493929190612b51565b6020604051808303816000875af192505050801561190a57506040513d601f19601f820116820180604052508101906119079190612bb2565b60015b61198c573d806000811461193a576040519150601f19603f3d011682016040523d82523d6000602084013e61193f565b606091505b506000815103611984576040517f08c379a000000000000000000000000000000000000000000000000000000000815260040161197b906129bc565b60405180910390fd5b805181602001fd5b63150b7a0260e01b7bffffffffffffffffffffffffffffffffffffffffffffffffffffffff1916817bffffffffffffffffffffffffffffffffffffffffffffffffffffffff1916149150506119e1565b600190505b949350505050565b505050565b6000808273ffffffffffffffffffffffffffffffffffffffff163b119050919050565b6000604051905090565b600080fd5b600080fd5b60007fffffffff0000000000000000000000000000000000000000000000000000000082169050919050565b611a5a81611a25565b8114611a6557600080fd5b50565b600081359050611a7781611a51565b92915050565b600060208284031215611a9357611a92611a1b565b5b6000611aa184828501611a68565b91505092915050565b60008115159050919050565b611abf81611aaa565b82525050565b6000602082019050611ada6000830184611ab6565b92915050565b600081519050919050565b600082825260208201905092915050565b60005b83811015611b1a578082015181840152602081019050611aff565b83811115611b29576000848401525b50505050565b6000601f19601f8301169050919050565b6000611b4b82611ae0565b611b558185611aeb565b9350611b65818560208601611afc565b611b6e81611b2f565b840191505092915050565b60006020820190508181036000830152611b938184611b40565b905092915050565b6000819050919050565b611bae81611b9b565b8114611bb957600080fd5b50565b600081359050611bcb81611ba5565b92915050565b600060208284031215611be757611be6611a1b565b5b6000611bf584828501611bbc565b91505092915050565b600073ffffffffffffffffffffffffffffffffffffffff82169050919050565b6000611c2982611bfe565b9050919050565b611c3981611c1e565b82525050565b6000602082019050611c546000830184611c30565b92915050565b611c6381611c1e565b8114611c6e57600080fd5b50565b600081359050611c8081611c5a565b92915050565b60008060408385031215611c9d57611c9c611a1b565b5b6000611cab85828601611c71565b9250506020611cbc85828601611bbc565b9150509250929050565b600080600060608486031215611cdf57611cde611a1b565b5b6000611ced86828701611c71565b9350506020611cfe86828701611c71565b9250506040611d0f86828701611bbc565b9150509250925092565b600060208284031215611d2f57611d2e611a1b565b5b6000611d3d84828501611c71565b91505092915050565b611d4f81611b9b565b82525050565b6000602082019050611d6a6000830184611d46565b92915050565b611d7981611aaa565b8114611d8457600080fd5b50565b600081359050611d9681611d70565b92915050565b60008060408385031215611db357611db2611a1b565b5b6000611dc185828601611c71565b9250506020611dd285828601611d87565b9150509250929050565b600080fd5b600080fd5b7f4e487b7100000000000000000000000000000000000000000000000000000000600052604160045260246000fd5b611e1e82611b2f565b810181811067ffffffffffffffff82111715611e3d57611e3c611de6565b5b80604052505050565b6000611e50611a11565b9050611e5c8282611e15565b919050565b600067ffffffffffffffff821115611e7c57611e7b611de6565b5b611e8582611b2f565b9050602081019050919050565b82818337600083830152505050565b6000611eb4611eaf84611e61565b611e46565b905082815260208101848484011115611ed057611ecf611de1565b5b611edb848285611e92565b509392505050565b600082601f830112611ef857611ef7611ddc565b5b8135611f08848260208601611ea1565b91505092915050565b60008060008060808587031215611f2b57611f2a611a1b565b5b6000611f3987828801611c71565b9450506020611f4a87828801611c71565b9350506040611f5b87828801611bbc565b925050606085013567ffffffffffffffff811115611f7c57611f7b611a20565b5b611f8887828801611ee3565b91505092959194509250565b600067ffffffffffffffff82169050919050565b611fb181611f94565b8114611fbc57600080fd5b50565b600081359050611fce81611fa8565b92915050565b600080600060608486031215611fed57611fec611a1b565b5b6000611ffb86828701611bbc565b935050602061200c86828701611c71565b925050604061201d86828701611fbf565b9150509250925092565b6000806040838503121561203e5761203d611a1b565b5b600061204c85828601611c71565b925050602061205d85828601611c71565b9150509250929050565b7f4e487b7100000000000000000000000000000000000000000000000000000000600052602260045260246000fd5b600060028204905060018216806120ae57607f821691505b6020821081036120c1576120c0612067565b5b50919050565b7f4552433732313a20617070726f76656420717565727920666f72206e6f6e657860008201527f697374656e7420746f6b656e0000000000000000000000000000000000000000602082015250565b6000612123602c83611aeb565b915061212e826120c7565b604082019050919050565b6000602082019050818103600083015261215281612116565b9050919050565b7f4552433732313a20617070726f76616c20746f2063757272656e74206f776e6560008201527f7200000000000000000000000000000000000000000000000000000000000000602082015250565b60006121b5602183611aeb565b91506121c082612159565b604082019050919050565b600060208201905081810360008301526121e4816121a8565b9050919050565b7f4552433732313a20617070726f76652063616c6c6572206973206e6f74206f7760008201527f6e6572206e6f7220617070726f76656420666f7220616c6c0000000000000000602082015250565b6000612247603883611aeb565b9150612252826121eb565b604082019050919050565b600060208201905081810360008301526122768161223a565b9050919050565b7f4e487b7100000000000000000000000000000000000000000000000000000000600052601160045260246000fd5b60006122b782611b9b565b91507fffffffffffffffffffffffffffffffffffffffffffffffffffffffffffffffff82036122e9576122e861227d565b5b600182019050919050565b7f4552433732313a207472616e736665722063616c6c6572206973206e6f74206f60008201527f776e6572206e6f7220617070726f766564000000000000000000000000000000602082015250565b6000612350603183611aeb565b915061235b826122f4565b604082019050919050565b6000602082019050818103600083015261237f81612343565b9050919050565b7f4552433732313a206f776e657220717565727920666f72206e6f6e657869737460008201527f656e7420746f6b656e0000000000000000000000000000000000000000000000602082015250565b60006123e2602983611aeb565b91506123ed82612386565b604082019050919050565b60006020820190508181036000830152612411816123d5565b9050919050565b7f4552433732313a2062616c616e636520717565727920666f7220746865207a6560008201527f726f206164647265737300000000000000000000000000000000000000000000602082015250565b6000612474602a83611aeb565b915061247f82612418565b604082019050919050565b600060208201905081810360008301526124a381612467565b9050919050565b7f4552433732314d657461646174613a2055524920717565727920666f72206e6f60008201527f6e6578697374656e7420746f6b656e0000000000000000000000000000000000602082015250565b6000612506602f83611aeb565b9150612511826124aa565b604082019050919050565b60006020820190508181036000830152612535816124f9565b9050919050565b600081905092915050565b600061255282611ae0565b61255c818561253c565b935061256c818560208601611afc565b80840191505092915050565b60006125848285612547565b91506125908284612547565b91508190509392505050565b6125a581611f94565b82525050565b60006020820190506125c0600083018461259c565b92915050565b7f4552433732313a206d696e7420746f20746865207a65726f2061646472657373600082015250565b60006125fc602083611aeb565b9150612607826125c6565b602082019050919050565b6000602082019050818103600083015261262b816125ef565b9050919050565b7f4552433732313a20746f6b656e20616c7265616479206d696e74656400000000600082015250565b6000612668601c83611aeb565b915061267382612632565b602082019050919050565b600060208201905081810360008301526126978161265b565b9050919050565b60006126a982611b9b565b91506126b483611b9b565b9250827fffffffffffffffffffffffffffffffffffffffffffffffffffffffffffffffff038211156126e9576126e861227d565b5b828201905092915050565b7f4552433732313a206f70657261746f7220717565727920666f72206e6f6e657860008201527f697374656e7420746f6b656e0000000000000000000000000000000000000000602082015250565b6000612750602c83611aeb565b915061275b826126f4565b604082019050919050565b6000602082019050818103600083015261277f81612743565b9050919050565b7f4552433732313a207472616e736665722066726f6d20696e636f72726563742060008201527f6f776e6572000000000000000000000000000000000000000000000000000000602082015250565b60006127e2602583611aeb565b91506127ed82612786565b604082019050919050565b60006020820190508181036000830152612811816127d5565b9050919050565b7f4552433732313a207472616e7366657220746f20746865207a65726f2061646460008201527f7265737300000000000000000000000000000000000000000000000000000000602082015250565b6000612874602483611aeb565b915061287f82612818565b604082019050919050565b600060208201905081810360008301526128a381612867565b9050919050565b60006128b582611b9b565b91506128c083611b9b565b9250828210156128d3576128d261227d565b5b828203905092915050565b7f4552433732313a20617070726f766520746f2063616c6c657200000000000000600082015250565b6000612914601983611aeb565b915061291f826128de565b602082019050919050565b6000602082019050818103600083015261294381612907565b9050919050565b7f4552433732313a207472616e7366657220746f206e6f6e20455243373231526560008201527f63656976657220696d706c656d656e7465720000000000000000000000000000602082015250565b60006129a6603283611aeb565b91506129b18261294a565b604082019050919050565b600060208201905081810360008301526129d581612999565b9050919050565b7f4e487b7100000000000000000000000000000000000000000000000000000000600052601260045260246000fd5b6000612a1682611b9b565b9150612a2183611b9b565b925082612a3157612a306129dc565b5b828204905092915050565b6000612a4782611b9b565b9150612a5283611b9b565b925082612a6257612a616129dc565b5b828206905092915050565b7f4e487b7100000000000000000000000000000000000000000000000000000000600052603260045260246000fd5b6000819050919050565b6000819050919050565b6000612acb612ac6612ac184612a9c565b612aa6565b611f94565b9050919050565b612adb81612ab0565b82525050565b6000602082019050612af66000830184612ad2565b92915050565b600081519050919050565b600082825260208201905092915050565b6000612b2382612afc565b612b2d8185612b07565b9350612b3d818560208601611afc565b612b4681611b2f565b840191505092915050565b6000608082019050612b666000830187611c30565b612b736020830186611c30565b612b806040830185611d46565b8181036060830152612b928184612b18565b905095945050505050565b600081519050612bac81611a51565b92915050565b600060208284031215612bc857612bc7611a1b565b5b6000612bd684828501612b9d565b9150509291505056fea264697066735822122003ef79cebb21e7dc5d2a8870ac89e7eb4e501251f89faa83e0f5daa5da73aa5e64736f6c634300080d0033",
  "immutableReferences": {},
  "source": "// SPDX-License-Identifier: MIT\npragma solidity ^0.8.0;\n\nimport \"./ERC4907.sol\";\n\ncontract ERC4907Demo is ERC4907 {\n    uint256 curId = 1;\n\n    constructor(string memory name_, string memory symbol_)\n        ERC4907(name_, symbol_)\n    {}\n\n    function mint() public {\n        _mint(msg.sender, curId);\n        curId++;\n    }\n}\n",
  "sourcePath": "c:\\Users\\jprecioso\\workspaces\\personal\\03_erc4907_truffle\\contracts\\ERC4907Demo.sol",
  "compiler": {
    "name": "solc",
    "version": "0.8.13+commit.abaa5c0e.Emscripten.clang"
  },
  "schemaVersion": "3.4.13",
  "updatedAt": "2023-04-06T16:21:51.025Z",
  "networkType": "ethereum",
  "devdoc": {
    "kind": "dev",
    "methods": {
      "approve(address,uint256)": {
        "details": "See {IERC721-approve}."
      },
      "balanceOf(address)": {
        "details": "See {IERC721-balanceOf}."
      },
      "getApproved(uint256)": {
        "details": "See {IERC721-getApproved}."
      },
      "isApprovedForAll(address,address)": {
        "details": "See {IERC721-isApprovedForAll}."
      },
      "name()": {
        "details": "See {IERC721Metadata-name}."
      },
      "ownerOf(uint256)": {
        "details": "See {IERC721-ownerOf}."
      },
      "safeTransferFrom(address,address,uint256)": {
        "details": "See {IERC721-safeTransferFrom}."
      },
      "safeTransferFrom(address,address,uint256,bytes)": {
        "details": "See {IERC721-safeTransferFrom}."
      },
      "setApprovalForAll(address,bool)": {
        "details": "See {IERC721-setApprovalForAll}."
      },
      "setUser(uint256,address,uint64)": {
        "details": "The zero address indicates there is no user  Throws if `tokenId` is not valid NFT",
        "params": {
          "expires": "UNIX timestamp, The new user could use the NFT before expires",
          "user": "The new user of the NFT"
        }
      },
      "supportsInterface(bytes4)": {
        "details": "See {IERC165-supportsInterface}."
      },
      "symbol()": {
        "details": "See {IERC721Metadata-symbol}."
      },
      "tokenURI(uint256)": {
        "details": "See {IERC721Metadata-tokenURI}."
      },
      "transferFrom(address,address,uint256)": {
        "details": "See {IERC721-transferFrom}."
      },
      "userExpires(uint256)": {
        "details": "The zero value indicates that there is no user ",
        "params": {
          "tokenId": "The NFT to get the user expires for"
        },
        "returns": {
          "_0": "The user expires for this NFT"
        }
      },
      "userOf(uint256)": {
        "details": "The zero address indicates that there is no user or the user is expired",
        "params": {
          "tokenId": "The NFT to get the user address for"
        },
        "returns": {
          "_0": "The user address for this NFT"
        }
      }
    },
    "version": 1
  },
  "userdoc": {
    "events": {
      "UpdateUser(uint256,address,uint64)": {
        "notice": "Emitted when the `user` of an NFT or the `expires` of the `user` is changed The zero address for user indicates that there is no user address"
      }
    },
    "kind": "user",
    "methods": {
      "setUser(uint256,address,uint64)": {
        "notice": "set the user and expires of a NFT"
      },
      "userExpires(uint256)": {
        "notice": "Get the user expires of an NFT"
      },
      "userOf(uint256)": {
        "notice": "Get the user address of an NFT"
      }
    },
    "version": 1
  }
}